:0501170003083F065B38
:040109000D12008F44
:09010D00007F027EC7DEFEDFFC6C
:0101160022C6
:10008F00EF14B4080050549000A475F003A4C58376
:10009F0025F0C583730200E40200DC0200D40200E5
:1000AF00CC0200C80200C40200C00200BCC2A4807F
:1000BF000EC2A48012C2A48016C2A4801AD2A4C2F7
:1000CF00A3C2A28016D2A4C2A3D2A2800ED2A4D25F
:1000DF00A3C2A28006D2A4D2A3D2A274082DF8E69E
:0300EF00F5802277
:1000F200E4FDFC7F0112008F12010D7F0212010943
:070102007F0312010980E9EF
:03000000020003F8
:0C000300787FE4F6D8FD75810A02004AFF
:10000F000200F2E493A3F8E493A34003F68001F215
:10001F0008DFF48029E493A3F85407240CC8C333F2
:10002F00C4540F4420C8834004F456800146F6DFC1
:10003F00E4800B0102040810204080900117E47E39
:10004F00019360BCA3FF543F30E509541FFEE493B6
:10005F00A360010ECF54C025E060A840B8E493A37D
:10006F00FAE493A3F8E493A3C8C582C8CAC583CAA8
:10007F00F0A3C8C582C8CAC583CADFE9DEE780BE60
:01011C0000E2
:00000001FF
