:0E039B004120436C6F636B0020203A2020004D
:06000300012D00012E009A
:100361005389F0438901C28DD28C758CFC758A1733
:07037100D2A9D2AFC2B922EC
:06038C00C2A58F80D2A77C
:080392007F027EEFDEFEDFFCBE
:01039A002240
:0A03A900C2A612038CC2A702039241
:10032500CFCDCFCECCCE12004D7C007D0A12004D34
:04033500ED2430FF84
:0A033900D2A612038CC2A7020392A1
:10034300AE07EEFB7A0064017004ED148009EB64E0
:0E035300024A7009ED243F4480FF1203A922E4
:100378007F381203A97F0C1203A97F061203A97FF5
:04038800010203A9C2
:0A03B300AC03120343AF0402033948
:060302008B118A12891321
:10030800120343E4FDAB11AA12A9138D8275830071
:0C03180012000EFF60061203390D80E990
:0103240022B6
:0A02A100EF24FFFDEE34FFFC7F0A9E
:0802AB008E168F178C188D19B7
:1002B3007F017E00E4FBEBC39519E5186480F874B5
:0E02C3008098500AAC16AD1712003B0B80E875
:0102D100220A
:0C02D200E52EFB7A007515027D017F020D
:0402DE008A138B14E0
:1002E200120343AA15EAFF7E00D39400748094801F
:0F02F200400D1202A1AC13AD141203251A80E6C1
:0103010022D9
:0401E6008B828A83FB
:1001EA00120343C3E58364809480400D7F2B12037E
:1001FA003985831F85822080107F2D120339C3E43D
:10020A009582F520E49583F51FAA1EEAFF7E00D3A6
:10021A00940074809480400D1202A1AC1FAD20128C
:05022A0003251A80E627
:01022F0022AC
:04019B008A238B2404
:10019F00120343AA25EAD39400748094804037EA6F
:1001AF0024FFFDE434FFFC7F107E001202ABAC2372
:1001BF00AD24CFCDCFCECCCE12004DEF540FFEC31A
:1001CF00940A74809480EE5004243080022437FF08
:0601DF001203391A80BF73
:0101E50022F7
:040230008A288B2964
:10023400120343AA2AEAFF7E00D3940074809480B8
:100244004026EF24FFFDEE34FFFC7F021202ABAC2C
:1002540028AD29CFCDCFCECCCE12004DEF54012402
:0802640030FF1203391A80CDAE
:01026C00226F
:10026D001203787BFF7A03799B7D017F01120302D4
:10027D007BFF7A0379A37D017F02120302120361D2
:10028D001202D2E52DFB7A007515027D047F021254
:04029D0002DE80FEFF
:03000B0002012EC1
:10012E00C0E0C0F0C0D075D000C000C002C003C097
:07013E0004C005C006C00764
:10014500758CFC758A17052CE52C7002052BC3945C
:10015500E8E52B9403402A752B00752C00052DD35B
:10016500E52D943B748094804005752D00052E1275
:1001750002D2E52DFB7A007515027D047F0212027D
:01018500DE9B
:10018600D007D006D005D004D003D002D000D0D0FE
:05019600D0F0D0E032C2
:030000000200A259
:0C00A200787FE4F6D8FD75812E0200E99D
:10000E00BB010CE58229F582E5833AF583E02250A7
:10001E0006E92582F8E622BBFE06E92582F8E222F1
:0D002E00E58229F582E5833AF583E493220B
:10003B00EF8DF0A4A8F0CF8CF0A428CE8DF0A42ED9
:02004B00FE2293
:10004D00BC000BBE0029EF8DF084FFADF022E4CC97
:10005D00F875F008EF2FFFEE33FEEC33FCEE9DEC60
:10006D00984005FCEE9DFE0FD5F0E9E4CEFD22EDA6
:10007D00F8F5F0EE8420D21CFEADF075F008EF2FF0
:10008D00FFED33FD4007985006D5F0F222C398FDE1
:05009D000FD5F0EA227E
:1000AE0002026DE493A3F8E493A34003F68001F2F9
:1000BE0008DFF48029E493A3F85407240CC8C33353
:1000CE00C4540F4420C8834004F456800146F6DF22
:1000DE00E4800B0102040810204080900003E47EAF
:1000EE00019360BCA3FF543F30E509541FFEE49317
:1000FE00A360010ECF54C025E060A840B8E493A3DE
:10010E00FAE493A3F8E493A3C8C582C8CAC583CA08
:10011E00F0A3C8C582C8CAC583CADFE9DEE780BEC0
:0100090000F6
:00000001FF
