:1004520070617373776F72642100636F7272656388
:0904620074200077726F6E6700D0
:0404A2000222000032
:040439007F147E00AE
:10043D00EF4E6010007D027CC7DCFEDDFCEF1F700F
:04044D00EF1E80EC32
:010451002288
:10000300E4FB7590FFC29320970E7F14FE12043D0C
:100013003097FD1204397B0120960B120439309678
:10002300FD1204397B0420950B1204393095FD121F
:1000330004397B0720940B1204393094FD120439E0
:100043007B0A7590FFC29220970B1204393097FDFB
:100053001204397B0220960B1204393096FD1204E8
:10006300397B0520950B1204393095FD1204397B39
:100073000820940B1204393094FD1204397B0B755C
:1000830090FFC29120970B1204393097FD12043967
:100093007B0320960B1204393096FD1204397B063C
:1000A30020950B1204393095FD1204397B092094F5
:1000B3000B1204393094FD1204397B0C7590FFC286
:1000C3009020970B1204393097FD1204397B0D20D1
:1000D300960B1204393096FD1204397B0E20950BD2
:1000E3001204393095FD1204397B0F20940B12044E
:0B00F300393094FD1204397B10AF037C
:0100FE0022DF
:06047F00C2A58F80D2A788
:080485007F027EEFDEFEDFFCCA
:01048D00224C
:0A048E00C2A612047FC2A702048573
:1003FD00CFCDCFCECCCE12013E7C007D0A12013E78
:04040D00ED2430FFAB
:0A041100D2A612047FC2A7020485E0
:10041B00AE07EEFB7A0064017004ED148009EB6407
:0E042B00024A7009ED243F4480FF12048E2225
:10046B007F3812048E7F0C12048E7F0612048E7F4F
:04047B000102048EE8
:0A049800AC0312041BAF04020411B0
:0603DA008B088A09890A64
:1003E00012041BE4FDAB08AA09A90A8D82758300DB
:0C03F0001200FFFF60061204110D80E9EE
:0103FC0022DE
:0A03A900EF24FFFDEE34FFFC7F0A95
:0803B3008E0D8F0E8C0F8D10D2
:1003BB007F017E00E4FBEBC39510E50F6480F874BE
:0E03CB008098500AAC0DAD0E12012C0B80E88C
:0103D9002201
:0E03770012046B750C04AB23AA227D017F02D9
:040385008A0A8B0B4A
:1003890012041BAA0CEAFF7E00D3940074809480A7
:0F039900400D1203A9AC0AAD0B1203FD1A80E64A
:0103A8002232
:0402F0008B828A83F0
:1002F40012041BC3E58364809480400D7F2B120499
:100304001185831685821780107F2D120411C3E492
:100314009582F517E49583F516AA15EAFF7E00D3B6
:10032400940074809480400D1203A9AC16AD17128A
:0503340003FD1A80E644
:0103390022A1
:0402A5008A1A8B1B0B
:1002A90012041BAA1CEAD39400748094804037EA94
:1002B90024FFFDE434FFFC7F107E001203B3AC1A67
:1002C900AD1BCFCDCFCECCCE12013EEF540FFEC326
:1002D900940A74809480EE5004243080022437FFFD
:0602E9001204111A80BF8F
:0102EF0022EC
:04033A008A1F8B206B
:10033E0012041BAA21EAFF7E00D3940074809480DD
:10034E004026EF24FFFDEE34FFFC7F021203B3AC18
:10035E001FAD20CFCDCFCECCCE12013EEF54012417
:08036E0030FF1204111A80CDCA
:010376002264
:10021F0012046B7BFF7A0479527D017F011203DA9E
:10022F001200038F24E52460F7D39409748094801F
:10023F005014AE22AF237C007D0A12012CEF25242F
:10024F00F523EC3EF522120377E524640A700EAE17
:10025F0022AF23FC7D0A12013E8E228F23120377D9
:10026F00E5246410702AE523B4D310E522B4040BFF
:10027F0012046B7BFF7A04795C800912046B7BFF9D
:10028F007A0479657D017F011203DAE4F522F52303
:06029F0012037A02022F97
:0300000002019367
:0C019300787FE4F6D8FD7581240201DAC3
:1000FF00BB010CE58229F582E5833AF583E02250B6
:10010F0006E92582F8E622BBFE06E92582F8E222FF
:0D011F00E58229F582E5833AF583E4932219
:10012C00EF8DF0A4A8F0CF8CF0A428CE8DF0A42EE7
:02013C00FE22A1
:10013E00BC000BBE0029EF8DF084FFADF022E4CCA5
:10014E00F875F008EF2FFFEE33FEEC33FCEE9DEC6E
:10015E00984005FCEE9DFE0FD5F0E9E4CEFD22EDB4
:10016E00F8F5F0EE8420D21CFEADF075F008EF2FFE
:10017E00FFED33FD4007985006D5F0F222C398FDEF
:05018E000FD5F0EA228C
:10019F0002021FE493A3F8E493A34003F68001F255
:1001AF0008DFF48029E493A3F85407240CC8C33361
:1001BF00C4540F4420C8834004F456800146F6DF30
:1001CF00E4800B01020408102040809004A2E47E1A
:1001DF00019360BCA3FF543F30E509541FFEE49325
:1001EF00A360010ECF54C025E060A840B8E493A3EC
:1001FF00FAE493A3F8E493A3C8C582C8CAC583CA17
:10020F00F0A3C8C582C8CAC583CADFE9DEE780BECE
:0104A6000055
:00000001FF
