:1000ED005389F0438901C28DD28C758CFC758A17AA
:0700FD00D2A9D2AFC2B92263
:0400D3007F0A7E0022
:1000D700EF1FAC0670011E4C600B007D027CC7DC75
:0500E700FEDDFC80EBD2
:0100EC0022F1
:10006E00E4FB20B10E7F0AFE1200D730B1FD120064
:10007E00D37B0120B00B1200D330B0FD1200D37B26
:10008E000220B20B1200D330B2FD1200D37B03203C
:0F009E00B30B1200D330B3FD1200D37B04AF03BA
:0100AD002230
:1000AE0075A0FE1200ED12006E8F0AE50A60F7646D
:1000BE000170F3050BC3E50B94027480948040E647
:0500CE00E4F50B80E1E8
:03000B0002000EE2
:0F000E00C0E0C0D075D000C000C004C005C0075E
:10001D00758CFC758A170509E50970020508C394EE
:10002D00E8E5089403402D750800750900E50BFD02
:10003D007C006401700DAFA07801EF08800123D81A
:10004D00FDF5A0ED4C700DAFA07801EF0880010318
:04005D00D8FDF5A035
:0D006100D007D005D004D000D0D0D0E032C0
:03000000020104F6
:0C010400787FE4F6D8FD75810B0200AE98
:00000001FF
