:0C037D0048656C6C6F77576F726C640001
:06036E00C2A58F80D2A79A
:080374007F027EEFDEFEDFFCDC
:01037C00225E
:0A039500C2A612036EC2A702037491
:10030500CFCDCFCECCCE12013E7C007D0A12013E70
:04031500ED2430FFA4
:0A031900D2A612036EC2A7020374FD
:10032300AE07EEFB7A0064017004ED148009EB6400
:0E033300024A7009ED243F4480FF1203952218
:10035A007F381203957F0C1203957F061203957F4F
:04036A0001020395F4
:0A039F00AC03120323AF040203199C
:0602E2008B088A09890A5D
:1002E800120323E4FDAB08AA09A90A8D82758300CD
:0C02F8001200FFFF60061203190D80E9E0
:0103040022D6
:0A026500EF24FFFDEE34FFFC7F0ADA
:08026F008E0D8F0E8C0F8D1017
:100277007F017E00E4FBEBC39510E50F6480F87403
:0E0287008098500AAC0DAD0E12012C0B80E8D1
:010295002246
:0402BE008A0A8B0B12
:1002C200120323AA0CEAFF7E00D394007480948068
:0F02D200400D120265AC0AAD0B1203051A80E64F
:0102E10022FA
:0401DE008B828A8303
:1001E200120323C3E58364809480400D7F2B1203A6
:1001F2001985831685821780107F2D120319C3E497
:100202009582F517E49583F516AA15EAFF7E00D3C9
:10021200940074809480400D120265AC16AD1712E2
:0502220003051A80E64F
:0102270022B4
:040193008A1A8B1B1E
:10019700120323AA1CEAD39400748094804037EAA0
:1001A70024FFFDE434FFFC7F107E0012026FAC1ABF
:1001B700AD1BCFCDCFCECCCE12013EEF540FFEC339
:1001C700940A74809480EE5004243080022437FF10
:0601D7001203191A80BF9B
:0101DD0022FF
:040228008A1F8B207E
:10022C00120323AA21EAFF7E00D3940074809480E9
:10023C004026EF24FFFDEE34FFFC7F0212026FAC70
:10024C001FAD20CFCDCFCECCCE12013EEF5401242A
:08025C0030FF1203191A80CDD6
:010264002277
:040341007F147E00A7
:10034500EF4E6010007D027CC7DCFEDDFCEF1F7008
:04035500EF1E80EC2B
:010359002281
:10000300E4FB7590FFC29320970E7F14FE12034505
:100013003097FD1203417B0120960B12034130966A
:10002300FD1203417B0520950B1203413095FD1210
:1000330003417B0920940B1203413094FD120341C9
:100043007B0D7590FFC29220970B1203413097FDF1
:100053001203417B0220960B1203413096FD1203DB
:10006300417B0620950B1203413095FD1203417B22
:100073000A20940B1203413094FD1203417B0E7549
:1000830090FFC29120970B1203413097FD12034159
:100093007B0320960B1203413096FD1203417B072D
:1000A30020950B1203413095FD1203417B0B2094E5
:1000B3000B1203413094FD1203417B0F7590FFC275
:1000C3009020970B1203413097FD1203417B0420CC
:1000D300960B1203413096FD1203417B0820950BCA
:1000E3001203413095FD1203417B0C20940B120344
:0B00F300413094FD1203417B10AF036D
:0100FE0022DF
:1002960012035A7BFF7A03797D7D017F011202E208
:1002A6001200038F22E52260F7FB7A00750C027DAF
:0802B600017F021202BE80E884
:030000000203896F
:0C038900787FE4F6D8FD75812202029610
:1000FF00BB010CE58229F582E5833AF583E02250B6
:10010F0006E92582F8E622BBFE06E92582F8E222FF
:0D011F00E58229F582E5833AF583E4932219
:10012C00EF8DF0A4A8F0CF8CF0A428CE8DF0A42EE7
:02013C00FE22A1
:10013E00BC000BBE0029EF8DF084FFADF022E4CCA5
:10014E00F875F008EF2FFFEE33FEEC33FCEE9DEC6E
:10015E00984005FCEE9DFE0FD5F0E9E4CEFD22EDB4
:10016E00F8F5F0EE8420D21CFEADF075F008EF2FFE
:10017E00FFED33FD4007985006D5F0F222C398FDEF
:05018E000FD5F0EA228C
:00000001FF
